00000000SEMINARIO VILLA CLAR20151005COBRANZAS   RAPIPAGO                 
20151005000000000015000107018729                                         
20151005000000000015000136676223                                         
20151005000000000036000405704016103398403600015123106                    
20151005000000000032000405701463101915803200013123103                    
20151005000000000032000405700043100017203200015123102                    
20151005000000000039000405704139103704703900015123102                    
20151005000000000032000405704426103700903200015123102                    
20151005000000000032000405701892103646903200015123100                    
20151005000000000036000405704132103440703600015123105                    
9999999900000009000000000000269000                                       
