00000000SEMINARIO VILLA CLAR20151013COBRANZAS   RAPIPAGO                 
20151013000000000032000405700043100017303200015123105                    
20151013000000000040000405700048100019604000015123100                    
20151013000000000025000405702523103421502500015123102                    
20151013000000000025000405702523103421402500015123108                    
9999999900000004000000000000122000                                       
